:100000000C9442000C945F000C945F000C945F0011
:100010000C945F000C945F000C945F000C945F00E4
:100020000C945F000C945F000C945F000C945F00D4
:100030000C945F000C945F000C945F000C945F00C4
:100040000C945F000C945F000C94B1070C945F005B
:100050000C945F000C945F000C945F000C945F00A4
:100060000C945F000C945F000C945F000C945F0094
:100070000C945F000C945F000C945F00000108007A
:100080000604000111241FBECFEFD0E1DEBFCDBFBB
:1000900011E0A0E0B1E0EAE0F5E102C005900D92C8
:1000A000A032B107D9F717E0A0E2B1E001C01D927C
:1000B000A335B107E1F70E94CD070C94830A0C9495
:1000C00000002C98962F9F71982B9EBD0DB407FEB3
:1000D000FDCF1EBC0DB407FEFDCF67FF04C01EBCE4
:1000E0000DB407FEFDCF2C9A8EB508952C986F7134
:1000F000682B6EBD0DB407FEFDCF4EBD0DB407FEDF
:10010000FDCF2C9A0895AC01FB012C988AE38EBD9B
:100110000DB407FEFDCF9A01DF0108C01EBC0DB46F
:1001200007FEFDCF215030408EB58D93211531054E
:10013000A9F7E40FF51F10822C9A08959C01FB018A
:100140002C988AE78EBD0DB407FEFDCF08C08081D4
:100150008EBD0DB407FEFDCF2150304031962115E4
:100160003105A9F72C9A08951F93CF93DF93182F89
:10017000C82FD0E0C076D0708091200190E0C817E1
:10018000D90791F080EA6FE143E00E94760085E0B4
:10019000D595C7958A95E1F780E86FE14C2F0E94CD
:1001A0007600107610932001DF91CF911F91089572
:1001B0001F93182F0E94B40080E0612F0E946100FD
:1001C0001F9108950F931F93182F062F0E94B400BC
:1001D00080E4612F402F0E9476001F910F910895B7
:1001E000682F84ED0E94E20082ED61E00E94E2004F
:1001F00080E58A95F1F78AEE0E94D80080FDFBCF5A
:1002000082ED60E00E94E20089ED0E94D80090E05B
:1002100008950F931F93982F162F072F84ED692FA2
:100220000E94E20086ED612F0E94E20087ED602FC0
:100230000E94E20010E503C0812F8A95F1F78AEE53
:100240000E94D80080FDF8CF1F910F910895682F6C
:10025000677085E70E94E20008950F931F938C0159
:10026000249A2C9A84B1806A84B9269A2D9A2F9A5E
:1002700080E58CBD8DB581608DBD8FEF60E04FEF67
:100280000E9476008DEC8A95F1F71092220110926F
:10029000210188E060E00E94E20089E060E00E94C5
:1002A000E2008CE060E00E94E2008DE060E00E94ED
:1002B000E2008AE06FEF0E94E2008BE06FE00E94B4
:1002C000E20084E060E00E94E20085E060E10E94DC
:1002D000E20086E06EEF0E94E20087E06FE10E949C
:1002E000E20088E360EB0E94E20088E26FE30E9494
:1002F000E20089E260E30E94E20080E369EF0E948D
:10030000E20081E367EF0E94E20080EC6DE00E9472
:10031000E20081EC60E00E94E20080E862EC42E3EF
:100320000E94760086EC62E10E94E20087EC6CE0BD
:100330000E94E20084EC62E10E94E2008AEC6CED33
:100340000E94E2008BEC65E00E94E20084EEF8017E
:1003500060810E94E20085EEF80161810E94E20066
:1003600082EEF80162810E94E20083EEF80163816F
:100370000E94E20080EEF80164810E94E20081EEBA
:10038000F80165810E94E20080E160E071E00E9476
:1003900009018FE10E94B40080E86BE148EC0E9403
:1003A000760080E86FE144E00E9476001F910F9193
:1003B000089582E70E94D800089581E10E94F0002C
:1003C00020E0892B09F021E0822F08950F931F93DD
:1003D000CF93DF93EC018B0114C08CE10E94D80015
:1003E00081FF0FC080E86FE140E80E94760080EA5C
:1003F0006FE140E80E94760080EA6CE142E00E94F2
:10040000760080E06FE10E94610083FDE6CF82E02C
:1004100060E00E94E20083E060E10E94E20086E08A
:100420006C2F0E94E2009E012050304F87E0632F26
:100430000E94E2008AE760E040E00E947600CE0180
:10044000B8010E949E0080E86FE148E00E947600BB
:10045000DF91CF911F910F91089589E30E94D800F9
:10046000811181E008958F929F92AF92BF92CF92B7
:10047000DF92EF92FF920F931F93CF93DF935C0174
:100480004B0189E30E94D800882319F4C0E0D0E032
:100490007AC0009121011091220180E0602F0E941A
:1004A000E200012F110F110B81E0602F0E94E2008A
:1004B0008AE360E00E946100182F8AE360E00E94F6
:1004C0006100382F20E0E12EFF24E22AF32AF09287
:1004D0002201E09221018AE360E00E946100C82EBF
:1004E0008AE360E00E946100D82E8AE360E00E9407
:1004F0006100082F10E08AE360E00E946100382F5D
:1005000020E0202B312B27FD03C0C0E0D0E011C03C
:10051000CC2DD0E09D2D80E0C82BD92BC5010197B3
:1005200024978C179D0708F4EC01CE01B4010E94BA
:1005300083008CE06E2D0E94E2006F2D772767FD0F
:100540007A958DE00E94E20087010150104080E121
:100550000030180738F08CE06FEF0E94E2008DE069
:100560006FE00AC06E2D61508CE00E94E200612FA6
:10057000772767FD7A958DE00E94E20080E86EE1C2
:1005800040E40E947600CE01DF91CF911F910F9140
:10059000FF90EF90DF90CF90BF90AF909F908F90A3
:1005A0000895CF92DF92EF92FF920F931F93CF9314
:1005B000DF936C01413081F4685070407B0100E0B2
:1005C00010E0685F7F4F21E130E040E050E0E20E54
:1005D000F31E041F151F15C0423021F0EE24FF2426
:1005E00087010FC0685070407B0100E010E0685F39
:1005F0007F4F86E090E0A0E0B0E0E80EF91E0A1F11
:100600001B1FF601EB0116C0808190E0A0E0B0E076
:10061000BA2FA92F982F8827218130E040E050E0A1
:10062000822B932BA42BB52BE80EF91E0A1F1B1F40
:1006300032962297C230D10538F7FB01EE7FEC0DE0
:10064000FD1D60FF15C0808190E0A0E0B0E0BA2FF2
:10065000A92F982F882708C02FEF3FEF40E050E0E8
:10066000E222F32204231523E80EF91E0A1F1B1FA2
:10067000C801AA27BB270097A105B10569F7970113
:1006800020953095C901DF91CF911F910F91FF9077
:10069000EF90DF90CF900895CF93DF93EC015093CC
:1006A00023014093000120E030E0F901E25DFE4FBC
:1006B000DB01A20FB31F8C9180832F5F3F4F24304B
:1006C000310599F720E030E0F901E85DFE4FDE01E9
:1006D000A20FB31F8C9180832F5F3F4F26303105CF
:1006E00099F7DF91CF910895DC0120E030E0FB0124
:1006F000E20FF31F5A969C915A978081981711F038
:1007000080E008952F5F3F4F11962430310579F72F
:1007100081E00895FC0169327105B0F0848588306C
:1007200099F48585863081F4DF019696EEE2F1E05A
:100730009C918081981741F41196319681E0E233C3
:10074000F807B1F781E0089580E00895FC016A326E
:100750007105D0F084858830B9F485858823A1F4AB
:100760008685853489F4DF01EEE2F1E05E969C91A6
:100770005E978081981741F41196319681E0E233BB
:10078000F807A1F781E0089580E00895FC01A8E250
:10079000B1E0868180838D918683319681E0AE328F
:1007A000B807B9F708950F931F938C01FC01108EC1
:1007B000118E80E4848B158A868BC8010E9664E1C5
:1007C00070E040E00E94D102F801908F818F1F916C
:1007D0000F910895AC01FC01AEE2B1E0828D868FED
:1007E0008D91828F319681E0A233B807B9F7CA01A3
:1007F0000E94D3030895FC01B99694E08081680FAC
:10080000711D84816483442311F0808301C01082B0
:1008100091503197992319F0672F7727EFCF0895DB
:100820000F931F938C01FC0194A182A184A392A336
:1008300095A183A185A393A3C8010E94FB03F8019E
:1008400012AA13AA80E586A71F910F910895FC01B3
:10085000908980E02189422F50E0482B592B26A512
:10086000822F82958F7090E0880F991F880F991FB3
:10087000481B590B4451504057FF02C040E050E024
:10088000CA0108956A5C7F4FDC01A60FB71F66534B
:10089000704003C08D936F5F7F4FFA014F5F5F4FD2
:1008A00084918823B9F7CB010895DA016A5C7F4F00
:1008B000FC01E60FF71F66537040922F03C08D9125
:1008C000819391509923D9F7CB01820F911D0895FF
:1008D00090932701809326010895EF92FF920F9342
:1008E0001F938C017B01CB018896F801908B818B43
:1008F000C8010E94D303F80112AA13AA8CE190E068
:10090000E80EF91EC8014A96B70142E00E94D102E2
:10091000F80192AB83ABC7014A96B8010E94E60189
:100920001F910F91FF90EF900895EF92FF921F9308
:10093000CF93DF93EC017B01142F0E94C603812F1C
:1009400080618FA7143031F0E114F10419F471E0E3
:10095000E72EF12CCE01B70141E00E941004188A65
:1009600088E2898BCE010E94EA0384E088AB19AA51
:10097000CE014A966CE170E042E00E94D1029AAB4F
:100980008BAB86E390E0BE010E94E601DF91CF9140
:100990001F91FF90EF900895EF92FF920F931F9396
:1009A0008C017B01609124017091250140E00E943F
:1009B000950489E1F80187A7C801B7010E946D0479
:1009C0001F910F91FF90EF9008950F931F938C014B
:1009D0000E94C603F801108A8CE2818BC8010E9434
:1009E000EA0382E1F80187A7C80161E070E040E016
:1009F0000E941004F80116A217A28091010180A79D
:100A000011A68D5F8093010182E086AB84E087AB05
:100A100095E090AF11AE80E686A790AB88E781ABFA
:100A2000C8014A9660E270E042E00E94D102F801FB
:100A300092AB83AB8AE390E0B8010E94E6011F917C
:100A40000F910895DF92EF92FF920F931F93CF9330
:100A5000DF93EC017B01142FD22E032F0E94C603DB
:100A60001D3D08F01CED188A145E198BCE010E9402
:100A7000EA038AA18CA38BA18DA30AA3DBA21EA2E9
:100A800014511FA3185018A619A6DE019A9620E04B
:100A900030E007C0F701E20FF31F80818D932F5FD5
:100AA0003F4F2117B8F3012F10E0005F1F4FCE0119
:100AB0004A96B80141E00E94D10298A789A7C801CF
:100AC0004A96BE010E94E601DF91CF911F910F91DE
:100AD000FF90EF90DF9008950F931F93CF93DF93D4
:100AE000EC018B010E94C603CE010E94EA031AA208
:100AF0008CA1883F18F08DA18F5F8DA38CA1885F9A
:100B00008CA3C801BE010E94E601DF91CF911F9125
:100B10000F910895CF93DF93EC010E94C6031C8AC6
:100B200082E08D8BFE01A8E2B1E0868980A38D91E1
:100B3000868B319681E0AE32B807B9F7FE017C961C
:100B4000AEE2B1E0808182878D91819381E0A23312
:100B5000B807C1F78AE290E0BE010E94E601DF918A
:100B6000CF910895FF920F931F93CF93DF93EC01E2
:100B70008B010E948A03882341F08D89813009F01E
:100B80005AC0CE010E948A0556C0CE01B8010E940B
:100B9000A603882309F44FC09F89913089F48AA164
:100BA000883071F4E0912601F0912701309719F017
:100BB000CE014A960995CE01B8010E946C053BC052
:100BC0000633110510F49630B1F59CA180912301F4
:100BD000981789F59DA180910001981761F58FA55F
:100BE000F82E81FF04C0CE010E94E50424C084FFDA
:100BF00022C0CE010E9427049093250180932401F6
:100C0000892B49F4F0FE17C0CE0160E070E040E0AF
:100C10000E94950410C08EA582958F70282F30E019
:100C2000220F331F220F331F2E5D3F4F08501040FD
:100C30000217130710F420E030E0C901DF91CF91D3
:100C40001F910F91FF900895CF93DF93DA010D90DC
:100C50000020E9F71197A41B6A5C7F4FEC01C60FD7
:100C6000D71F66537040FA01B0E09A012A0F3B1F6C
:100C700002C081918993E217F307D9F79B012A0FEC
:100C80003B1FC901DF91CF91089520E03FE004C0F0
:100C9000F9013197F1F701970097D1F708952FE007
:100CA00088E190E00FB6F894A895809360000FBE9D
:100CB000209360000895A8950895FC018CE380932B
:100CC000F80689E48093F9068EE38093FA06818121
:100CD000882321F48091FB06816003C08091FB068C
:100CE0008E7F8093FB068281882321F48091FB060E
:100CF000826003C08091FB068D7F8093FB06838119
:100D0000882321F48091FB06846003C08091FB0658
:100D10008B7F8093FB068481882321F48091FB06DE
:100D2000886003C08091FB06877F8093FB068581E6
:100D3000882321F48091FB06806103C08091FB062B
:100D40008F7E8093FB068681882321F48091FB06A9
:100D5000806203C08091FB068F7D8093FB068781B4
:100D6000882321F48091FB06806403C08091FB06F8
:100D70008F7B8093FB068085882321F48091FB067E
:100D8000806803C08091FB068F778093FB06818586
:100D9000882321F48091FC06816003C08091FC06C9
:100DA0008E7F8093FC068285882321F48091FC0647
:100DB000826003C08091FC068D7F8093FC06838552
:100DC000882321F48091FC06846003C08091FC0696
:100DD0008B7F8093FC068485882321F48091FC0618
:100DE000886003C08091FC06877F8093FC06858520
:100DF000882321F48091FC06806103C08091FC0669
:100E00008F7E8093FC068685813021F48091FC06DC
:100E1000806203C08091FC068F7D8093FC068785ED
:100E2000813021F48091FC06806403C08091FC062F
:100E30008F7B8093FC068089813021F48091FC06B1
:100E4000806803C08091FC068F778093FC068189BF
:100E5000813021F48091FD06816003C08091FD0600
:100E60008E7F8093FD068289813021F48091FD067A
:100E7000826003C08091FD068D7F8093FD0683898B
:100E8000813021F48091FD06846003C08091FD06CD
:100E90008B7F8093FD068489813021F48091FD064B
:100EA000886003C08091FD06877F8093FD06858959
:100EB000813021F48091FD06806103C08091FD06A0
:100EC0008F7E8093FD068689813021F48091FD0616
:100ED000806203C08091FD068F7D8093FD06878927
:100EE000813021F48091FD06806403C08091FD066D
:100EF0008F7B8093FD06808D813021F48091FD06EB
:100F0000806803C08091FD068F778093FD0680E0A6
:100F100090E0089584B1806A84B926982D982F981E
:100F2000509A589A85E085BDEEE6F0E080818160B8
:100F30008083789487B187B988B19FEF98B981B1E0
:100F400081B982B192B98AB18F708AB98BB1806F41
:100F50008BB984B1807F84B985B18F6085B9539A8C
:100F600008951F920F920FB60F9211248F939F93A3
:100F700080913701909138010196909338018093C8
:100F80003701809129078F5F809329079F918F9167
:100F90000F900FBE0F901F901895AF92BF92CF92F7
:100FA000DF92EF92FF920F931F93DF93CF93CDB712
:100FB000DEB7E2970FB6F894DEBF0FBECDBF80E07C
:100FC00090E0AE01465E5F4F9E012F5F3F4FFA01FA
:100FD000E80FF91F1082F901E80FF91F108201963E
:100FE0008A319105A1F70E948A0782E091E00E9470
:100FF0002D0184E166E774E00E94090182E091E03E
:1010000068E071E040E550E00E944C031092380126
:101010001092370101E04AE1E42EF12CEC0EFD1EA6
:1010200038E0C32E21E1B22E94E0A92E80EBD82E19
:10103000809137019091380121E08233920711F4B9
:10104000589824C0A1E083339A0711F4589A1EC01F
:1010500084539140DCF0109238011092370182E005
:1010600091E00E942D0184E166E774E00E9409018D
:1010700082E091E068E071E040E550E00E944C03BE
:1010800010923801109237010093E60680912207F2
:10109000813019F4109229075B98809129078530D7
:1010A00008F05B9A109222078A814D9907C00B8F36
:1010B000882351F40093E6060A8306C01B8E813014
:1010C00019F48093E6061A828B814C9907C00C8F25
:1010D000882351F40093E6060B8306C01C8E8130F2
:1010E00019F48093E6061B828C814F9907C00D8FFF
:1010F000882351F40093E6060C8306C01D8E8130D0
:1011000019F48093E6061C828D814E9907C00E8FDC
:10111000882351F40093E6060D8306C01E8E8130AD
:1011200019F48093E6061D828E81319907C00F8FD6
:10113000882351F40093E6060E8306C01F8E81308B
:1011400019F48093E6061E828F81309907C008A3A8
:10115000882351F40093E6060F8306C018A281305D
:1011600019F48093E6061F828885339907C009A386
:10117000882351F40093E606088706C019A281303F
:1011800019F48093E60618868985329907C00AA368
:10119000882351F40093E606098706C01AA281301D
:1011A00019F48093E60619868A85359907C00BA342
:1011B000882351F40093E6060A8706C01BA28130FB
:1011C00019F48093E6061A868B85349907C00CA320
:1011D000882351F40093E6060B8706C01CA28130D9
:1011E00019F48093E6061B868C85379907C00DA3FA
:1011F000882351F40093E6060C8706C01DA28130B7
:1012000019F48093E6061C868D85369907C00EA3D7
:10121000882351F40093E6060D8706C01EA2813094
:1012200019F48093E6061D868E85069907C00FA3E4
:10123000882351F40093E6060E8706C01FA2813072
:1012400019F48093E6061E868F85079907C008A7C4
:10125000882351F40093E6060F8706C018A6813054
:1012600019F48093E6061F868889049907C009A7A8
:10127000882351F40093E606088B06C019A6813036
:1012800019F48093E606188A8989059907C00AA788
:10129000882351F40093E606098B06C01AA6813014
:1012A00019F48093E606198A8A89029907C00BA768
:1012B000882351F40093E6060A8B06C01BA68130F2
:1012C00019F48093E6061A8A8B89039907C00CA744
:1012D000882351F40093E6060B8B06C01CA68130D0
:1012E00019F48093E6061B8A8C89009907C00DA724
:1012F000882351F40093E6060C8B06C01DA68130AE
:1013000019F48093E6061C8A8D89019907C00EA7FF
:10131000882351F40093E6060D8B06C01EA681308B
:1013200019F48093E6061D8A8E89199907C00FA7C4
:10133000882351F40093E6060E8B06C01FA6813069
:1013400019F48093E6061E8A8F89189907C008ABA6
:10135000882351F40093E6060F8B06C018AA81304B
:1013600019F48093E6061F8A888D1B9907C009AB84
:10137000882351F40093E606088F06C019AA81302D
:1013800019F48093E606188E198D1A9907C00AABD6
:10139000112369F40093E606098F09C01AAA1130D7
:1013A00031F4C7010E945D061093E606198E109174
:1013B000E606113029F4C7010E945D06109322074A
:1013C0008091E606813009F058C090E011C0E92F05
:1013D000F0E09F01275C3E4FDF01AE5FBE4F8C9176
:1013E000D9018C93E45FFE4F808116968C939F5FAA
:1013F000963068F390933201C092450110924601F5
:10140000A7E4B1E0E2E1F1E089E001900D928150C2
:10141000E1F710924901B092500190E013C0E92F1A
:10142000F0E09F01275C3E4FDF01A85FBE4F8C912B
:10143000D9015E968C935E97E55EFE4F80815A9649
:101440008C939F5F943058F390933201A0925B018C
:10145000D0925C01D0925D0110925F011092610107
:101460001092620189E391E068EF76E046E020EBBC
:1014700034E00E9422051092E6068AEA95E069E3CC
:1014800071E00E943302BC0190931D0780931C07FA
:10149000009709F4CDCD89E391E00E948A03882367
:1014A00029F089E391E00E948A05C2CD60911C0772
:1014B00070911D0789E391E00E94A603882309F437
:1014C000B7CD109150011130A1F480915B018830AB
:1014D00009F0AECD60911C0770911D0789E391E082
:1014E0000E946C0510923801109237011093220768
:1014F0009FCD113109F09CCD109238011092370127
:0A1500000093220795CDF894FFCF69
:10150A00500A444F4112F212C0A80167B827EB35BE
:10151A005D0B450000820000400020C0A8010200C7
:00000001FF
